:10000000F8C0000027C1000025C1000023C1000086
:1000100021C100001FC100001DC100001BC1000064
:1000200019C1000017C1000015C1000013C1000074
:1000300011C100000FC100000DC100000BC1000084
:1000400009C1000007C1000005C1000003C1000094
:1000500001C10000FFC00000FDC000000C941F277C
:10006000F9C000000C94422A0C94782AF3C00000D6
:10007000F1C00000EFC00000EDC00000EBC00000C8
:10008000E9C00000E7C00000E5C00000E3C00000D8
:100090000C94CE2A0C94042BDDC00000DBC00000C1
:1000A000D9C00000D7C00000D5C00000D3C00000F8
:1000B000D1C00000CFC00000CDC00000CBC0000008
:1000C000C9C00000C7C000000C947F230C945A2BB9
:1000D0000C94902BBFC000000C94E62B0C941C2CAD
:1000E000B9C0000000000A0B02090C0D0E0807033E
:1000F00004010000000000000000000000000000FB
:1001000000000000000000000000000000000000EF
:1001100012111000000000000000000000000000AC
:100120000000000000000000000001021020200874
:100130000810204010204080020102010804020142
:1001400001020408102040808040201008040201B1
:10015000800402018040201008040201080402010A
:100160000102040810204080010204081020408091
:1001700005050505070508080808020202020A0A23
:100180000808040404040101010101010101030341
:10019000030303030303040707070C0C0C0C0C0CEC
:1001A0000C0C0202020206060606060606060B0BE9
:1001B0000B0B0B0B0B0B00002200250028002B0063
:1001C0002E003100340002010000050108010B017E
:1001D00000002100240027002A002D0030003300F9
:1001E00001010000040107010A01A12A2D2BB92BEE
:1001F000452C11241FBECFEFD1E2DEBFCDBF00E002
:100200000CBF12E0A0E0B2E0E0E3FAE500E00BBFD3
:1002100002C007900D92A43DB107D9F728E0A4EDE4
:10022000B2E001C01D92A730B207E1F710E0C9EFBC
:10023000D0E000E006C021970109802FFE010E9456
:10024000E52CC53FD10780E00807A9F70E9482246A
:100250000C94162DD5CECF93DF93882349F0EB0174
:1002600081500E94262899838883DF91CF91089539
:10027000FB0111821082F9CF0F931F938B019C0118
:1002800083E036952795179507958A95D1F70C52F7
:100290001D4F462F477021E030E0F90102C0EE0FFC
:1002A000FF1F4A95E2F7AF01F80120812423CB011B
:1002B0000196211102C090E080E01F910F910895F6
:1002C0000F931F938B019C0183E03695279517951B
:1002D00007958A95D1F7677081E090E001C0880F9B
:1002E0006A95EAF7F801EC52FD4F2081452B31F475
:1002F0008095822380831F910F910895822BFACFDE
:10030000CF92DF92EF92FF92CF93DF936B017C014C
:1003100060E086E3C816D104E104F10490F486E3BA
:100320008C0D0E94AF28E6012196AE01C701B601EF
:10033000C7DFCE01DF91CF91FF90EF90DF90CF909C
:1003400008958C2DEECF882341F08150682F70E006
:1003500090E080E050E040E0B3CF0895611102C02A
:100360000C94AF286130E1F362E0FACF662319F014
:1003700061E00C94EB2860E0FCCF90E080E0089511
:100380000F931F93009709F488C06115710509F454
:1003900084C000911002109111022091120230913C
:1003A00013020E3F1F4F2F4F3F4F09F068C0DB0174
:1003B0004D915D916D917C9140931002509311028B
:1003C0006093120270931302409110025091110237
:1003D0006091120270911302DC011296ED91FC9172
:1003E00080819181A281B3818093470390934803D8
:1003F000A0934903B0934A0384819581A681B78174
:100400008093430390934403A0934503B093460322
:1004100080859185A285B38580933F0390934003A7
:10042000A0934103B093420384859585A685B78543
:1004300080933B0390933C03A0933D03B0933E0312
:1004400010923703109238031092390310923A0336
:10045000FFD48DE497E09093DE028093DD029093C9
:10046000E0028093DF02E3D3009731F421E030E033
:1004700030934C0320934B031F910F9108950091EB
:100480001002109111022091120230911302FB010F
:10049000008311832283338397CF8FEF9FEFECCFBD
:1004A0008F929F92AF92BF92CF92DF92EF92FF9284
:1004B0001F93CF93DF934B015C0110914E0382E0B9
:1004C00090E090934C0380934B0381149104A1041A
:1004D000B10441F480914E03811104C080914D0319
:1004E000C1E08111C0E0C12CD12C760180914E0376
:1004F000811106C080914D03811102C0CC23D9F037
:1005000083E090E090934C0380934B03CC2379F1EC
:10051000CCE9DFEF111102C00E94B10ACE01DF91D8
:10052000CF911F91FF90EF90DF90CF90BF90AF9051
:100530009F908F9008956AE070E080E090E00E94C4
:100540008E2780E1C80E87E2D81EE11CF11C8FEFD8
:1005500088169806A806B80631F0C1E08C149D04F0
:10056000AE04BF0408F0C0E080E095D3BFCFD0E078
:10057000C0E0D0CFCF92DF92EF92FF920F931F9304
:10058000CF93DF938F3F910511F008F050C0209179
:100590004B0330914C032330310539F020914B034C
:1005A00030914C032130310531F424E030E03093B8
:1005B0004C0320934B036A017B01EC0182309105CF
:1005C000A0F011E0AE01C701B60130D3AB01BC0110
:1005D000CE011123F9F0DF91CF911F910F91FF9080
:1005E000EF90DF90CF900C94D60C8C01000F111F70
:1005F00003521D4FD8018D919C91892B11F30E94BC
:10060000E00C0297F1F6D801ED91FC91CE0119951D
:10061000182FD8CF0E94F80C90E080E0DF91CF91A6
:100620001F910F91FF90EF90DF90CF9008958FEF83
:100630009FEFF4CF80E02FC3CF93DF9386E090E06D
:1006400090934C0380934B037FD3EC01EDEDF2E0EC
:1006500084E0DF011D928A95E9F71BD710924C03C5
:1006600010924B03CE01DF91CF91089580914D03FD
:1006700008958091360308956093100270931102DB
:10068000809312029093130290E080E00895CF923D
:10069000DF92EF92FF926B017C019F7720E030E0C8
:1006A00040E859E50E94832587FF2BC020E030E019
:1006B00040E05FE3C701B6010E94B82687FD0EC087
:1006C00020E030E040E05FE3C701B6010E940C2566
:1006D000FF90EF90DF90CF900C94F02520E030E079
:1006E00040E05FEBC701B6010E94B826181684F4FB
:1006F00020E030E0A901C701B6010E94BC266B01D1
:100700007C01C701B601FF90EF90DF90CF90089574
:1007100020E030E040E05FE3C701B6010E940B2516
:10072000FF90EF90DF90CF900C9470254F925F92E6
:100730006F927F928F929F92AF92BF92CF92DF92F1
:10074000EF92FF92C090FB07D090FC07E090FD076E
:10075000F090FE07C701B6010E94B5252B013C01B0
:10076000209108023091090240910A0250910B0237
:100770000E94832587FF93C0F7FC91C08090000200
:1007800090900102A0900202B09003028092FF07B5
:1007900090920008A0920108B092020820E030E098
:1007A00040E85FE3609104027091050280910602C7
:1007B000909107020E940B259B01AC01C301B2017D
:1007C0000E94B82687FD6FC01092FB071092FC07AD
:1007D0001092FD071092FE07C501B40158DF6B01AE
:1007E0007C0120E030E040E853E40E9483256FEF75
:1007F00087FF0EC020E030E0A901C701B6010E94CA
:10080000B82660E087FD04C0C701B6010E948725B5
:1008100089E0ACDD6AE370E080E090E02DDD90934C
:10082000EE078093ED0743E050E063E078E013DDEE
:1008300060910D0370910E0380910F03909110034E
:100840006F5F7F4F8F4F9F4F60930D0370930E0329
:1008500080930F03909310030E94B3259B01AC017A
:10086000609111037091120380911303909114030E
:100870000E94BC266093090370930A0380930B03C4
:1008800090930C03FF90EF90DF90CF90BF90AF90CC
:100890009F908F907F906F905F904F900895812CE4
:1008A000912C540173CF8FEFC81AD80AE80AF80ABE
:1008B000C092FB07D092FC07E092FD07F092FE0782
:1008C0008BCFCF92DF92EF92FF921F93CF93DF9364
:1008D000E3EFF2E080E090E0A0E2B1E482A393A332
:1008E000A4A3B5A380E090E0A0E0BFE3868F978F3C
:1008F000A0A3B1A384E598EEA3EFB2EE8483958321
:10090000A683B78387E99EEFACE3B6EE8087918735
:10091000A287B38783E594E9A2EEB1E58487958742
:10092000A687B7878FED93E5A0EBB5E1808B918B20
:10093000A28BB38BA7EEB2E0B383A283E1EEF2E029
:100940001196FC93EE938AE392E0918380839383E4
:1009500082839583848387E093E015969C938E939E
:10096000149787EF92E013969C938E93129744E12D
:1009700050E060E070E018964D935D936D937C932A
:100980001B97C7EED7E01886C12CD12C7601C394F3
:10099000C986DA86EB86FC8661E089E0DFDC11E05F
:1009A0001D871882C982DA82EB82FC826AE370E0DA
:1009B00080E090E0A5DC9F838E831D83DF91CF9143
:1009C0001F91FF90EF90DF90CF9008958091EF07F7
:1009D000811103C081E08093EF078091E7078111C7
:1009E0001DC081E08093E7078091E8079091E907B7
:1009F000A091EA07B091EB070197A105B10571F449
:100A00008091EC07882351F06AE370E080E090E089
:100A100033DC9093EE078093ED0795CC08954F92C9
:100A20005F926F927F928F929F92AF92BF92CF927E
:100A3000DF92EF92FF920F931F93F894409026035A
:100A4000509027036090280370902903C0901A03E8
:100A5000D0901B03E0901C03F0901D03452B09F080
:100A6000A6C09B01AC012419350946095709290183
:100A70003A01009122031091230320912403309125
:100A8000250348015901840C951CA61CB71C80162F
:100A90009106A206B306A0F400911E0310911F0355
:100AA00020912003309121030F5F1F4F2F4F3F4FA5
:100AB00000931E0310931F03209320033093210300
:100AC0008092220390922303A0922403B0922503E4
:100AD00000911E0310911F032091200330912103E8
:100AE00080922A0390922B03A0922C03B0922D03A4
:100AF00000932E0310932F03209330033093310380
:100B0000609326037093270380932803909329030F
:100B1000A301920160E271EA87E090E00E94A02CBC
:100B20006C0D7D1D8E1D9F1D60931A0370931B031A
:100B300080931C0390931D030091100210911102E9
:100B400020911202309113020F3F1F4F2F4F3F4F42
:100B5000F1F00091100210911102209112023091D7
:100B600013020E3F1F4F2F4F3F4F89F0C0901002CE
:100B7000D0901102E0901202F090130221E08C1448
:100B80009D04AE04BF0408F420E02093360378945B
:100B90001F910F91FF90EF90DF90CF90BF90AF909B
:100BA0009F908F907F906F905F904F9008954B0132
:100BB0005C0184189508A608B708A3019201261BBA
:100BC000370B480B590B6415750586059705E0F042
:100BD00082169306A406B50640F420E030E0A90191
:100BE00081149104A104B104A1F460E271EA87E0E8
:100BF00090E00E94A02CA7019601261B370B480B02
:100C0000590BCA01B901C3CF82169306A406B506D3
:100C100060F7A501940160E271EA87E090E00E942C
:100C2000A02C6C0D7D1D8E1D9F1DB1CFF8CECF93D6
:100C3000DF9300D01F92CDB7DEB71C821B821A82D1
:100C400019821092320310923303109234031092DF
:100C50003503BE016F5F7F4FCE0103960E941423C0
:100C600069817A818B819C810E94041C009761F4C8
:100C7000BE016F5F7F4FCE0103960E9420236981E2
:100C80007A818B819C812AD50F900F900F900F90C5
:100C9000DF91CF910895FF920F931F93CF93DF932E
:100CA000082F60E070E0CB010E948E27FF24F394B0
:100CB0000E94ED1AEC01892B89F010E0CE3F8FEFF6
:100CC000D80769F0002361F160E070E0CB010E9479
:100CD0008E2781E090E0892B59F322C011E021D5C5
:100CE000EC01892B21F0CE3F8FEFD80759F7111176
:100CF0001EC011E0229609F410E00E949D1AEC013A
:100D0000892B21F0CE3F8FEFD807E1F6111111C0EA
:100D100011E0CE3F8FEFD80709F410E001110BC0AE
:100D2000CE01DF91CF911F910F91FF90089511E0B7
:100D3000E4CF11E0F3CF60E070E0CB010E948E279A
:100D40001F25812F90E0C7CFCF93DF93809136038B
:100D5000882321F060E070E0CB0148D631D6D0E0A6
:100D6000C0E0892B71F06AE070E080E090E00E94C2
:100D70008E2781E090DF24D62196C03D27E0D20760
:100D800081F723D60E94581C10924E0310924D03F7
:100D900010924703109248031092490310924A039D
:100DA000109243031092440310924503109246039D
:100DB00010923F031092400310924103109242039D
:100DC00010923B0310923C0310923D0310923E039D
:100DD00010923703109238031092390310923A039D
:100DE0004EEF5FEF6FEF7FEF4093100250931102D1
:100DF000609312027093130210923603EAE2F3E05A
:100E000028E0DF011D922A95E9F71092260310923F
:100E100027031092280310922903109222031092A4
:100E20002303109224031092250310921E031092A4
:100E30001F03109220031092210310921A031092A4
:100E40001B0310921C0310921D03DF91CF91089594
:100E500010925A0310925B0310925C0310925D0390
:100E60001092590380916203909163039093580309
:100E7000809357031092560310925503109251031A
:100E800010925203109253031092540310925F0376
:100E900010925E0390E080E00895CF92DF92EF928F
:100EA000FF920F931F93CF938C01892B09F055C0AC
:100EB000209162033091630380915703909158030E
:100EC000409162035091630350935803409357033A
:100ED0002817390781F0109256031092550310928B
:100EE0005103109252031092530310925403109224
:100EF0005F0310925E0380916203909163030197F8
:100F000061F580915E0390915F03892B21F48091BC
:100F10001402811112C080915E0390915F030197CA
:100F2000E1F48091510390915203A0915303B09149
:100F300054030197A105B10581F410925103109259
:100F4000520310925303109254031092140282E041
:100F500090E090935F0380935E0380916203909191
:100F60006303019709F01CC1809178039091790384
:100F70008017910709F014C1809174039091750353
:100F8000A0917603B0917703009709F409C12091ED
:100F9000730321110DC0409174035091750360914A
:100FA000760370917703452B462B472B09F4F8C045
:100FB00020915E0330915F032230310509F0F0C0CB
:100FC000209155032111ECC0FC01C080D180E2804A
:100FD000F38080915903882309F4D3C0809165037D
:100FE00090916603892B09F4FDC02091650330912F
:100FF000660381E02230310509F080E0209165032D
:1010000030916603C1E02130310549F0209165033C
:1010100030916603C1E02230310509F0C0E0882339
:1010200009F456C020916F03309170034091710311
:1010300050917203C701B6010E94B82687FD14C003
:1010400020916F03309170034091710350917203AE
:1010500060915A0370915B0380915C0390915D03F2
:101060000E94832587FD22C020916F033091700379
:101070004091710350917203C701B6010E94B826D6
:10108000181634F520916F0330917003409171036D
:101090005091720360915A0370915B0380915C03DD
:1010A00090915D030E948325811112C08091670396
:1010B00090916803A0916903B0916A03892B8A2BF0
:1010C0008B2B19F481E08093560381E080935503C4
:1010D000CC2309F456C020916F03309170034091E6
:1010E000710350917203C701B6010E94832587FFE7
:1010F00014C020916F03309170034091710350919F
:10110000720360915A0370915B0380915C0390912C
:101110005D030E94B82687FF22C020916F033091A3
:1011200070034091710350917203C701B6010E9490
:101130008325811126C020916F0330917003409167
:1011400071035091720360915A0370915B03809117
:101150005C0390915D030E94B826181694F4809168
:10116000670390916803A0916903B0916A03892B8A
:101170008A2B8B2B19F481E08093560381E08093B6
:10118000550381E090915503911180E080935903BC
:10119000C0925A03D0925B03E0925C03F0925D032D
:1011A000012B09F067C180915E0390915F03892B49
:1011B000D9F410926403109255038091140288238D
:1011C00079F082E090E090935F0380935E03109249
:1011D0001402209162033091630381E0232BE9F034
:1011E00080E01BC081E00ACF10921402809164035A
:1011F000882349F01092560310925F0310925E0309
:1012000010926403EDCF8091620390916303892B68
:10121000E1F0809155031092550320915E033091C7
:101220005F032230310509F45EC088F421153105D1
:1012300009F448C02130310509F4F3C01092560377
:10124000109255031092640338C081E0E6CF23303A
:10125000310509F4B1C02430310581F740915103C3
:1012600050915203609153037091540341155105FD
:101270006105710561F0415051096109710940939F
:10128000510350935203609353037093540340915E
:101290005103509152036091530370915403452BB5
:1012A000462B472BD9F42091600330916103213004
:1012B000310509F046C01092560310925F03109258
:1012C0005E030CC080911402882341F082E090E01C
:1012D00090935F0380935E031092140210924F0369
:1012E00080915603CEC08823C9F380916703909103
:1012F0006803A0916903B0916A03181619061A06CB
:101300001B060CF07DC080916203909163030197EE
:1013100009F076C08091670390916803A0916903FA
:10132000B0916A038093510390935203A0935303A7
:10133000B093540383E090E090935F0380935E0347
:10134000CDCF40916B0350916C0360916D03709110
:101350006E03452B462B472BA9F010925603809124
:101360006B0390916C03A0916D03B0916E03809319
:10137000510390935203A0935303B093540381E01D
:1013800090E0DACF882399F08091150290911602AF
:10139000A0911702B09118028093510390935203C9
:1013A000A0935303B093540384E090E0C5CF109210
:1013B000560382E090E0C0CF809151039091520398
:1013C000A0915303B09154030097A105B10559F0C2
:1013D0000197A109B1098093510390935203A093FF
:1013E0005303B09354038091510390915203A09101
:1013F0005303B0915403892B8A2B8B2B09F06ECFAA
:101400008091150290911602A0911702B0911802D6
:10141000892B8A2B8B2B09F44ECF81E080935603C6
:10142000B3CF409151035091520360915303709197
:101430005403411551056105710561F04150510991
:101440006109710940935103509352036093530310
:101450007093540340915103509152036091530390
:1014600070915403452B462B472B09F037CF811140
:10147000C7CF9FCF80914F03882309F431CF80914C
:101480005003CF911F910F91FF90EF90DF90CF907D
:10149000089510925A0310925B0310925C0310920D
:1014A0005D031092590310925F0310925E03109235
:1014B00058031092570310927903109278031092F8
:1014C000560310925503109251031092520310923A
:1014D0005303109254031092500310924F03109232
:1014E0007403109275031092760310927703109292
:1014F000730310926F031092700310927103109295
:10150000720388EE93E0A0E0B0E080931502909320
:101510001602A0931702B093180210926B03109258
:101520006C0310926D0310926E0310926703109279
:1015300068031092690310926A0310926603109276
:10154000650381E080931402109264031092630398
:1015500010926203109261031092600390E080E0A9
:1015600008958091620390916303892BE1F4809147
:101570001402882351F080916403811106C081E038
:101580008093500380934F030895809164038823D0
:1015900041F080911402811104C01092500381E047
:1015A000F1CF10924F03089582E090E0FA01918309
:1015B00080838FEF9FEF0895CF93DF93EA01009729
:1015C00011F00E94781D1982188290E080E0DF916E
:1015D000CF910895DB01009719F48FEF8C93089554
:1015E0002EEF2C93FC017096E031F10508F037C026
:1015F0008827E250F54F8F4F0C94E52C2D0B2B0BC9
:10160000290B270B250B230B1F0B210B1D0B1B0B72
:10161000190B160B120B0E0B140B2F0B80E31196EC
:101620008C93089589E2FBCF82E2F9CF11961C9248
:10163000089583E2F4CF81E2F2CF81E1F0CF87E237
:10164000EECF8AE2ECCF80E1EACF84E2E8CF88E215
:10165000E6CF86E2E4CF81E3E2CF83E3E0CF80E22E
:10166000DECF80918603909187030895909387033E
:101670008093860308958091850308959091850352
:10168000892B809385030895982F909580918503E9
:101690008923809385030895809184030895809120
:1016A00082039091830308956115710559F0FB0140
:1016B00030E020E070E060E02417350719F0611594
:1016C000710511F0CB010895A081B181A817B90768
:1016D00009F4BF012F5F3F4F3696EECF809188030C
:1016E00081111CC060D266D290937B0380937A03F1
:1016F0000E9476150E94881590937F0380937E0345
:101700000E94051A0E940C1A90937D0380937C031B
:1017100081E08093880390E080E0089584EF9FEF5C
:1017200008958F929F92AF92BF92CF92DF92EF92E5
:10173000FF920F931F93CF93DF9300D000D000D080
:101740001F92CDB7DEB71A86198618861F821E82B1
:101750001D821C821B821A8219828091880307EFE6
:101760001FEF882309F49CC08E010D5F1F4F9E015F
:101770002B5F3F4FAE01495F5F4FBE01675F7F4FF9
:1017800090E080E00E94891B8C01009721F0059673
:10179000029708F0DBC029853A852115310509F447
:1017A00002C1ED80FE804B815C81B701640F751F23
:1017B0008F8198858617970708F4F5C0E20EF31E0F
:1017C000D7019C91903C09F07FC04230510508F44C
:1017D0007BC011968C914091860350918703452BD5
:1017E00009F49CC0913F08F071C02CE1290F2D3005
:1017F00008F48BC02DE2290F203108F489C0903CF9
:1018000021F48150823008F483C088E3890F8B3043
:1018100008F481C09AEEC92E9AE0D92EE4EDFAE0E0
:101820006D817E81AE014F5F5F4F89859A851995E5
:101830005C01C114D104A1F189809A8081149104C2
:1018400079F18B819C818815990508F487C010E097
:1018500000E04B815C8170E060E0C7010E940F2DC9
:1018600001151105E9F449815A8169857A858D81CF
:101870009E81680F791FC501F6011995E980FA80EC
:101880000D811E812F81388549855A856FEF7FEF45
:1018900081E090E00E94241B8C01892B09F056C046
:1018A000C8012A960FB6F894DEBF0FBECDBFDF91F8
:1018B000CF911F910F91FF90EF90DF90CF90BF904D
:1018C000AF909F908F90089580E085CF30E020E02A
:1018D000220F331FF901E658FC4F0190F081E02DF3
:1018E000309709F497CF892F90E01995009709F464
:1018F00091CFDC011296ED91FC9113971496CD9047
:10190000DC90309709F08CCF1FC021E030E0E0CFB1
:1019100022E030E0DDCF23E030E0DACFD12CC12C63
:10192000ECEDFAE09F3F09F07BCFE0917A03F09174
:101930007B03309721F4C90104EF1FEF0CC08FEF38
:1019400090E019950097A9F604EF1FEF89859A8515
:10195000009709F4A5CF0E94781DA2CF0E94531CC6
:101960008C0189859A850E94781D70E060E0C40131
:101970000E94EC1B98878F830E94211B9E838D837E
:101980006F8178856115710559F0C8010E94041FA7
:101990009A87898706EF1FEF892B09F058CF59CF17
:1019A00008EF1FEF56CF08EF1FEFD0CF209188032D
:1019B000222319F020E00C948D1587EF9FEF0895F6
:1019C000809186039091870308950E94111A0E94C6
:1019D0006B19F5D0EAE7F3E088E0DF011D928A9504
:1019E000E9F71092880390E080E008950C94C917FD
:1019F00021E040E050E0BA010C948D1586E090E0C3
:101A0000FA019183808390E080E0089547E050E000
:101A10006DE372E049CEDF92EF92FF920F931F9336
:101A2000CF93DF938A01EC01C60FD71FE0908C03A0
:101A3000F0908D03D9800E943B1CD816190678F0CF
:101A400082E090E0F801918380838EEF9FEFDF9139
:101A5000CF911F910F91FF90EF90DF900895EF28A5
:101A600041F482E090E0F8019183808384EF9FEF5E
:101A7000EECF898180938B0390E00196F8019183EA
:101A8000808390E080E0E3CFCF93DF93EA010E9470
:101A90007A18882321F00E94481C0E947B1882E05B
:101AA00090E0998388838BEF9FEFDF91CF9108952A
:101AB000CF93DF93EB0186E0FB0111928A95E9F762
:101AC0008FEF8883D8DD8983E7DD8A83E8DD9D8316
:101AD0008C83DF91CF910895CF93DF93EA010E9429
:101AE0007D18811109C082E090E09983888385EF99
:101AF0009FEFDF91CF91089590E080E0B7DD81E026
:101B000090E09983888390E080E0F3CF0F931F9358
:101B1000CF93DF93EA018C01060F171F0E947D18F7
:101B200081110BC082E090E09983888385EF9FEF5D
:101B3000DF91CF911F910F910895F801818182303B
:101B400038F082E090E0998388838EEF9FEFF0CFAA
:101B500081E090E08BDD88E090E09983888390E0DD
:101B600080E0E6CFCF93DF930097D1F4EB01FB0148
:101B7000329686E0DF011D928A95E9F78FEF888320
:101B800085E089831A820E943B1C8B830E943A1C49
:101B90009D838C8381E08E838F83DF91CF91089525
:101BA000DF91CF9117CD86E09DE090938A038093DB
:101BB000890308958091890390918A030895109272
:101BC0008A0310928903089580918C0390918D036C
:101BD0000895411105C0611571058105910561F0F8
:101BE00060938C0370938D0380938E0390938F0387
:101BF0004093900381E0089580E00895FF920F9351
:101C00001F93CF93DF938A01EC01C60FD71FF98092
:101C10000E943B1CF816190668F082E090E0F8017B
:101C2000918380838EEF9FEFDF91CF911F910F9172
:101C3000FF9008956C817D818E819F814B81C9DFEA
:101C4000811108C082E090E0F8019183808384EFE5
:101C50009FEFEACF898180938B0390E00196F80192
:101C60009183808390E080E0DFCFCF93DF93EA0120
:101C7000FC01E60FF71F648175818681978143819E
:101C8000A8DF811109C082E090E09983888384EF06
:101C90009FEFDF91CF91089581E090E09983888351
:101CA00090E080E0F6CFECE8F3E040815181628182
:101CB0007381480F511D611D711D408351836283E3
:101CC00073830895CF93C0918B034C2F50E06091A4
:101CD0008C0370918D0301960E94062D8C2FE3DFFB
:101CE00010928B03CF910895009799F480918C0303
:101CF00090918D032FEFFB012083892B59F02091C8
:101D00008B0330E02F5F3F4F2417350719F4CB01C9
:101D1000D9CF60CC0895009799F480918C0390916D
:101D20008D032FEFFB012083892B59F020918B032A
:101D300030E02F5F3F4F2417350719F4CB01C2CF96
:101D400049CC089523E1AC01249FC001259F900D4B
:101D50001124E0919503F0919603E80FF91F238178
:101D600034812250310981E02230310508F080E0D1
:101D700008950F931F93CF93DF93009197031091D2
:101D80009803D0E0C0E080E00C171D0749F491E013
:101D9000811190E0892FDF91CF911F910F910895CC
:101DA0008111F5CFCE01CEDF2196EECFA091950324
:101DB000B0919603109729F12091970330919803E1
:101DC00082179307F0F453E1589F9001599F300D0B
:101DD0001124A20FB31FED91FC911197309789F058
:101DE00012968C91681768F48DE0689FE00DF11DE4
:101DF000112480819181892B21F081E09281491702
:101E000008F080E008959C0143E1429FC001439F98
:101E1000900D1124E0919503F0919603E80FF91FBE
:101E20008385823091F481E090E0658176814091F4
:101E3000190250911A026417750711F490E080E0BE
:101E4000892B19F081E0232B09F080E00895FC0133
:101E5000A081B1818DE0689FA00DB11D1124139662
:101E60004D915C9185859685489F9001499F300DE5
:101E7000589F300D1124C9010196611103C047819B
:101E800044FD04960895EF92FF920F931F93CF9312
:101E9000DF93EA01FC01E60FF71F02811381E48062
:101EA000F5804F2D6E2DC80181DF81110DC082E0BC
:101EB00090E0998388838EEF9FEFDF91CF911F9100
:101EC0000F91FF90EF900895C8013CDF882339F00F
:101ED00082E090E09983888388EF9FEFEECF1093A4
:101EE000200200931F02E0922102F092220281E080
:101EF00090E09983888390E080E0DFCFCF92DF92FB
:101F0000EF92FF920F931F93CF93DF937A01EC012F
:101F1000C60FD71FC0901F02D0902002009121024F
:101F200010912202412F602FC60140DF811110C0A5
:101F300082E090E0F701918380838AEF9FEFDF9149
:101F4000CF911F910F91FF90EF90DF90CF90089568
:101F5000C601F8DE882341F082E090E0F70191832A
:101F6000808388EF9FEFEBCF4C815D816E817F8115
:101F70009A8189818F3F41F082E090E0F70191835F
:101F800080838EEF9FEFDBCFE3E1EC9D9001ED9D31
:101F9000300D1124E0919503F0919603E20FF31FA9
:101FA0000190F081E02D2DE0029FE00DF11D112444
:101FB0000190F081E02D27E0129FE00DF11D11242A
:101FC000808391838B81828343835483658376836B
:101FD0001F5F1093220281E090E0F70191838083DC
:101FE00090E080E0ACCFEF92FF920F931F93CF93DE
:101FF000DF937A018C01060F171FC0919503D091D2
:102000009603209781F021E030E0F80182819381EE
:1020100040919703509198038417950710F030E092
:1020200020E0232B71F482E090E0F701918380831C
:102030008EEF9FEFDF91CF911F910F91FF90EF9067
:10204000089543E1489F9001499F300D1124C20F2C
:10205000D31F78DE882341F082E090E0F70191837E
:10206000808388EF9FEFE6CFF80124813581203807
:102070003105C8F687818111D6CF4181842F90E048
:102080008F7E009741F082E090E0F701918380839A
:1020900086EF9FEFCFCF4F833E832D832681288706
:1020A0001986223010F421E0288721E030E0F70182
:1020B00031832083BFCF88E090E0FA019183808351
:1020C00090E080E00895FB018FEF808381E18183C0
:1020D0008FEF9FEF9383828380E890E095838483E2
:1020E000168217820895FB018FEF808391E0918320
:1020F00082839383848384E3858381E090E0978364
:102100008683089582E090E0FA019183808380EFD6
:102110009FEF0895DF92EF92FF920F931F93CF935B
:10212000DF93EA01FC01E60FF71F8181813071F036
:1021300082E090E0998388838FEF9FEFDF91CF91CA
:102140001F910F91FF90EF90DF900895828193810E
:10215000D4802581E680F780009195031091960345
:102160000115110539F482E090E0998388838CEFA2
:102170009FEFE4CF40919703509198038417950700
:1021800038F082E090E0998388838EEF9FEFD6CF7E
:10219000892B39F082E090E09983888386EF9FEF66
:1021A000CDCF8D2D8D7FB1F72130A1F781E0D110FA
:1021B00006C091E0E916F10431F080E004C0E2E0ED
:1021C000EE16F104D0F3882329F390E080E0BADD25
:1021D000882339F082E090E09983888388EF9FEF2D
:1021E000ADCFF801D38681E08487F686E586108A34
:1021F000178681E090E09983888390E080E09ECF0D
:102200004DE050E067E672E04FCA8F929F92BF9216
:10221000CF92DF92EF92FF920F931F93CF93DF93B2
:10222000EA01FC01E60FF71F828193810481B580EA
:10223000E0919503F0919603309791F482E090E05D
:10224000998388838CEF9FEFDF91CF911F910F913E
:10225000FF90EF90DF90CF90BF909F908F90089568
:1022600020919703309198038217930738F082E00A
:1022700090E0998388838EEF9FEFE6CF23E1289F3C
:102280006001299FD00C1124EC0DFD1DE080F18030
:10229000E114F10499F28281081748F78DE0089F54
:1022A00080011124E00EF11EF70180819181892BBC
:1022B00029F6BB20E1F2F7E0BF9E40011124C401E2
:1022C0000E943F1DF70191838083E0919503F09177
:1022D0009603EC0DFD1D0190F081E02DE00FF11F44
:1022E00080819181009739F482E090E0998388831E
:1022F0008DEF9FEFA9CFA40170E060E00E940F2D49
:102300008091950390919603C80ED91EF6018081A5
:102310009181080F191FF801B28281E090E0998342
:10232000888390E080E090CFAF92BF92CF92DF920F
:10233000FF920F931F93CF93DF93EA01FC01E60F07
:10234000F71F82819381F480009195031091960389
:102350000115110581F482E090E0998388838CEF68
:102360009FEFDF91CF911F910F91FF90DF90CF9062
:10237000BF90AF90089520919703309198038217F2
:10238000930738F082E090E0998388838EEF9FEF87
:10239000E8CF2FEF2F0D2C3FA8F723E1289F6001F6
:1023A000299FD00C11240C0D1D1DF80180819181F5
:1023B000892B89F6FDE0FF9E50011124C5010E9482
:1023C0003F1DF80191838083E0919503F09196037E
:1023D000EC0DFD1D80819181009739F482E090E041
:1023E000998388838DEF9FEFBCCFA50170E060E0FB
:1023F0000E940F2DE0919503F0919603EC0DFD1DC9
:10240000F28281E090E09983888390E080E0A9CF18
:10241000CF92DF92EF92FF920F931F93CF93DF93B0
:10242000860F971FFC010281138180919503909183
:102430009603892B81F082E090E0FA0191838083FA
:102440008CEF9FEFDF91CF911F910F91FF90EF9055
:10245000DF90CF900895C801B0E0A0E00197A109F6
:10246000B1098F3F9F4FA105B10540F082E090E098
:10247000FA01918380838EEF9FEFE4CF7A0183E1AD
:10248000809F6001819FD00C1124C6010E943F1DD6
:10249000EC01009741F482E090E0F70191838083A2
:1024A0008DEF9FEFCFCFA60170E060E00E940F2D6F
:1024B000D0939603C09395031093980300939703CA
:1024C00090E080E02FEF3FEF41E061E070E08017A7
:1024D000910741F481E090E0F7019183808390E0DF
:1024E00080E0B0CF3A8B298B1B864C877E876D8727
:1024F000188A1F8601966396EACFEF92FF921F9388
:10250000CF93DF93EC0110E0F12CE12C6A811617D8
:10251000B0F083E0689FB0011124AE014F5E5F4FC1
:10252000C7010E94A41D009721F02FEF3FEF3A8BC7
:10253000298BDF91CF911F91FF90EF900895612F2C
:10254000CE0185DC61E070E00E94EC1BE816F90624
:1025500008F47C011F5FDACFF89420919303309147
:10256000940381E02115310509F080E0232B09F067
:10257000789408952F923F924F925F926F927F923C
:102580008F929F92AF92BF92CF92DF92EF92FF9283
:102590000F931F93CF93DF933C01660E771EF301D9
:1025A000828193814C01B12CA12CC0919503D091D3
:1025B0009603209769F021E030E0609197037091D5
:1025C00098038617970710F030E020E0232BD1F412
:1025D00082E090E0FA01918380838EEF9FEFDF919C
:1025E000CF911F910F91FF90EF90DF90CF90BF9010
:1025F000AF909F908F907F906F905F904F903F90A3
:102600002F9008958092230290922402A092250296
:10261000B092260263E1689F9001699F300D1124FA
:10262000C20FD31FF3018181833040F082E090E03C
:10263000FA019183808386EF9FEFD1CF2A012B810E
:102640003C81232BF1F4288139819F8191FF2EC099
:10265000232B09F46FC020919A039A81422F490FCE
:102660005527551FBA0141E050E06138710514F05B
:1026700050E040E0452B09F45DC02A87920F90930B
:102680009A038150823008F481C066DF882309F400
:10269000D8C0F3018181813009F48DC008F47BC07A
:1026A000823009F4C6C090E080E0ADC0232B09F46D
:1026B00041C0209199039A81E22FE90FFF27FF1F64
:1026C00041E050E0ED3FF10514F050E040E0452BD3
:1026D00089F12A87920F90939903D3CFA081B1817A
:1026E000A20FB31F11966C91060F111D0196295F61
:1026F0003F4F8417950794F38D859E85089F1001A1
:10270000099F300C189F300C1124C114D104D1F44E
:102710008F8184FF17C00E943A1CF5E02F0E311CF8
:1027200021E08215930508F420E0A701435F5F4F85
:1027300021110EC082E090E0F2019183808387EF47
:102740009FEF4DCF0E943A1C2FEF221A320AE8CF9A
:1027500088819981E80EF91EF70114830383FFEF46
:10276000CF1ADF0A7A018A818C151D0409F00CF456
:102770008CCFE881F981EE0DFF1D428150E030E001
:1027800020E010E000E090E080E0B3CFF12CE12CFD
:10279000D12CC12CE8CF81E090E09C838B83E9DAD7
:1027A000882309F480CF81E090E00E94360B80E41A
:1027B0000E94440B78CF89899A89019661F083E061
:1027C00090E09C838B8382E090E00E94360B80E453
:1027D0000E943E0B68CF8D819E812091190230911D
:1027E0001A0282179307D1F460911D0270911E02A4
:1027F000AE014F5E5F4F80911B0290911C020E94C0
:10280000C31E0097E1F2789422E030E0F2013183B8
:102810002083892B99F08DEF9FEFE1CE89288A28BC
:102820008B2869F6892B59F6CE0167DE188A1F8638
:10283000E8CF82E090E09C838B8335CF90E080E00E
:10284000CECE82E090E0F2019183808385EF9FEF0E
:10285000C6CE8F929F92AF92BF92CF92DF92EF92AD
:10286000FF920F931F93CF93DF93EA018C01060F22
:10287000171FF8018181833098F082E090E09983FE
:10288000888386EF9FEFDF91CF911F910F91FF908B
:10289000EF90DF90CF90BF90AF909F908F90089572
:1028A0008091950390919603892B61F081E090E0EF
:1028B0002091970330919803232B11F490E080E04E
:1028C000892B39F482E090E0998388838EEF9FEF23
:1028D000DACF42DE882309F4DFC0F801818181303C
:1028E00009F495C0E8F0823099F420919703309173
:1028F0009803E0919503F091960390E080E041E029
:1029000050E02817390709F0BDC033DA811117C02C
:10291000789481E090E09983888390E080E0B3CF61
:102920002091970330919803E0919503F0919603DD
:1029300090E080E041E050E02817390741F481E061
:1029400090E00E94360B80E40E94440BE1CF63814B
:102950007481672B11F05483438301967396ECCFF7
:10296000E0919503F0919603E00FF11F23813481EC
:1029700022303105D9F4218932892F3F3F4FB1F4FC
:10298000258136814091190250911A02241735078A
:1029900061F5AF014F5E5F4F60911D0270911E02A5
:1029A00080911B0290911C020E94C31EEFEFCE1A71
:1029B000DE0AEE0AFE0A0D5E1F4F4091970350910A
:1029C000980370E060E0C416D506E606F7063CF50D
:1029D000009731F27894892B09F49BCF82E090E044
:1029E000998388838DEF9FEF4ECFC114D104E1040A
:1029F000F104E1F6232BD1F6CF017FDDE0919503C1
:102A0000F0919603E00FF11F108A1786CFCF10E0E8
:102A100000E090E080E0C12CD12C7601CECF009771
:102A2000C9F610E000E0812C912C540183E0E82EDF
:102A3000F12C1AC0E0919503F0919603E00FF11F7D
:102A400083819481029749F4F482E38282E090E0EA
:102A50000E94360B80E40E943E0BFFEF8F1A9F0A04
:102A6000AF0ABF0A0D5E1F4F8091970390919803A4
:102A7000B0E0A0E088169906AA06BB06DCF290E05A
:102A800080E0A8CF638174816230710511F45483B2
:102A900043830196739635CF82E090E099838883D3
:102AA00085EF9FEFF0CE0097B9F48FEFFB018083A5
:102AB000209123023091240243E1429FC001439FB1
:102AC000900D1124E0919503F0919603E80FF91F02
:102AD0008285FB01818308950C94EA0A88E090E0E6
:102AE000FA019183808390E080E00895109294032E
:102AF00010929303E5E9F3E086E0DF011D928A95E9
:102B0000E9F780E091E19093920380939103089517
:102B1000809191039091920308952F923F924F924A
:102B20005F926F927F928F929F92AF92BF92CF925D
:102B3000DF92EF92FF920F931F93CF93DF93CDB766
:102B4000DEB72F970FB6F894DEBF0FBECDBFF89457
:102B5000E0919303F09194033196F0939403E09302
:102B60009303789440909503509096034114510438
:102B700009F40CC2E0919703F0919803EF2B09F44C
:102B800005C22D8749875A876B877C8798878F83F3
:102B90001201B12CA12C10E000E0809197039091DC
:102BA0009803A816B90618F40115110529F1F8942F
:102BB0008091930390919403019790939403809351
:102BC00093037894C8012F960FB6F894DEBF0FBE1A
:102BD000CDBFDF91CF911F910F91FF90EF90DF90CC
:102BE000CF90BF90AF909F908F907F906F905F90AD
:102BF0004F903F902F9008957101E418F508D1018E
:102C000017968C91179781FD54C013968D919C91C6
:102C10001497039709F04DC015968D919C91EF8103
:102C2000F8858E179F0709F044C0B50190E080E059
:102C30007FD48A8320919503309196033D832C8322
:102C40003D85332309F44CC04C815D81452B09F44B
:102C50009AC18091970390919803A816B90608F03D
:102C600092C1C501D0D88823E9F06C817D816E0DB9
:102C70007F1D7D836C83DB011F968D919C91892B39
:102C800089F0D12CC12CF12CE12CAC81BD811296A4
:102C90008C9112978E151F0409F094F450961C9293
:102CA0001E921F972A81222321F0B50190E080E037
:102CB00041D43FEFA31AB30A43E1240E311C6DCF78
:102CC000AC81BD81ED91FC91EC0DFD1D858196815E
:102CD0000FD7BFEFEB1AFB0AEDE0CE0ED11CD5CF1C
:102CE000EC81FD81309709F44EC18091970390915A
:102CF0009803A816B90608F046C1EE0DFF1DFF8720
:102D0000EE87C50180D88B83882339F1AE85BF85D6
:102D10001F968D919C915097019621E01D964D91A3
:102D20005C918417950709F020E02E831982712C9D
:102D300010E000E0AE85BF8512968C91781608F4FD
:102D40005DC0EE85FF8587859089019665857685CE
:102D50000E94AF2C908B8787A5CFB1E0BE83E6CFD2
:102D6000992493946BC08BD6F6019683858382C099
:102D7000D601ED90FC90B7E06B9EE00CF11C1124A5
:102D8000F7016381748180818F3F61F121E030E040
:102D900002C0220F331F8A95E2F7C901092E000CE9
:102DA000AA0BBB0BFB01408151816281738184239B
:102DB0009523A623B72321E0892B8A2B8B2B09F49B
:102DC00020E0D4012C93D70111968C91F601238534
:102DD0003485820F932F911D880E991E14861386B9
:102DE00063949BC0418150E0C4010E94062DEBCF4B
:102DF000998206EF1FEFC5C01982C3C0F981F11196
:102E0000A0CFEDE07E9E70011124AE85BF85CD90F0
:102E1000DC90CE0CDF1C15D49D838C83BB81BB233F
:102E200009F49ECF81E0EE85FF8527853089232B2D
:102E300009F080E0982E882309F458C0672D8E850C
:102E40009F8505D8D60118969C938E93179761E0BD
:102E500070E0C2D4EE85FF85218932892F3F320789
:102E600009F481CFBC01C901CFD7D60116969C9336
:102E70008E931597D60115968D919C911697009774
:102E800009F4B6CFEC81FD818E0F9F1F1A969C939B
:102E90008E931997AE85BF85ED91FC911197EE0E3B
:102EA000FF1EF70121853285148613861A968C91B0
:102EB000870DD9018D93711016C0EE85FF8587812E
:102EC00084FF11C049855A856B857C85F901418352
:102ED000528363837483F701838594850496A80FD6
:102EE000B91F14861386F701B287A187D6011596FC
:102EF0008D919C911697892B09F443C0EE85FF852F
:102F0000258136818091190290911A02281739077C
:102F100079F019968D909C90612CD60112968C9127
:102F20001297681608F424CF1A969C928E921997DD
:102F3000BE81BB2309F460CF61E070E0F6018781B8
:102F400090854AD4D6011796ED90FC901897159667
:102F50004D915C91E1E0F0E0BA81BB2311F0F0E02B
:102F6000E0E00C811D819C01B501882799278E1B0B
:102F70009F0B6AD38C01892B21F0F6018581968104
:102F8000B7D57394D7CE0FEF1FEF8CCE10E000E0D3
:102F90000ECE2F923F924F925F926F927F928F92BE
:102FA0009F92AF92BF92CF92DF92EF92FF920F93D8
:102FB0001F93CF93DF93809195039091960310E038
:102FC00000E0892BA9F0C8DA0AEF1FEF882381F00F
:102FD0002090970330909803C0919503D091960369
:102FE000D12CC12C10E000E02C143D04A9F47894FD
:102FF000C801DF91CF911F910F91FF90EF90DF906B
:10300000CF90BF90AF909F908F907F906F905F9088
:103010004F903F902F900895C6010E94030F882380
:1030200009F18B819C810397E9F48F859889892B1D
:10303000C9F0B60190E080E07BD221E030E0882347
:1030400011F030E020E044245524421A530AB12CF8
:10305000A12C912C812C8A818815190409F038F44F
:10306000188A1F864FEFC41AD40A6396BDCFE88131
:10307000F981EA0DFB1D85819681892BA1F161E023
:1030800070E087819085A8D33C01DBD28C01E88178
:10309000F981EA0DFB1D8185928525813681200FFE
:1030A000311FAC01421B530B9A0147815085421BD3
:1030B000530B70E060E00E940F2DE881F981EA0D6A
:1030C000FB1DE780F084458156819301B601C20162
:1030D000BBD28C01892B39F0E881F981EA0DFB1D07
:1030E0008581968105D55FEF851A950A8DE0A80E3A
:1030F000B11CB1CF31CA789408952F923F924F926C
:103100005F926F927F929F92AF92BF92CF92DF9227
:10311000EF92FF920F931F93CF93DF9300D000D0D5
:10312000CDB7DEB70091950310919603992493943F
:103130000115110509F43EC0A0909703B0909803C3
:103140000BDA982E8823B1F1109296031092950312
:1031500010929803109297031092990310929A0379
:103160008FEF9FEFDC018093230290932402A093C2
:103170002502B093260278947FD31E830D83C12C41
:10318000D12C7601C501B0E0A0E089839A83AB839E
:10319000BC8322242A94322C89819A81AB81BC8100
:1031A000C816D906EA06FB06F4F0C801A1D480E4EB
:1031B0000E94440B892D26960FB6F894DEBF0FBEF1
:1031C000CDBFDF91CF911F910F91FF90EF90DF90D6
:1031D000CF90BF90AF909F907F906F905F904F90F7
:1031E0003F902F900895AD81BE8115968D919C9151
:1031F00016972091190230911A0282179307D1F481
:1032000051968D919C91EED5ED81FE8180819181C9
:10321000B12CA12C412C512C3201892B89F5BFEF07
:10322000CB1ADB0AEB0AFB0AED81FE817396FE8363
:10323000ED83B2CFC114D104E104F10429F7892B45
:1032400019F7ED81FE81818992898F3F980709F0F6
:1032500029D5AD81BE8152963C922E925197D4CF02
:103260008A0D9B1DDC018D919C91009709F040D443
:10327000BFEF4B1A5B0A6B0A7B0AEDE0AE0EB11C86
:10328000AD81BE818D919C91119712964C9150E029
:1032900070E060E044165506660677060CF328D405
:1032A000BECFCF93DF93EA0128DF811109C082E00E
:1032B00090E09983888385EF9FEFDF91CF91089508
:1032C00081E090E00E94360B81E090E09983888352
:1032D00090E080E0F2CF11DF109292031092910300
:1032E000089542E050E065EB72E00C94540BFF92BD
:1032F0000F931F93CF93DF938A01EC01C60FD71F63
:10330000F980B9D20897F816190671F068F082E0D2
:1033100090E0F801918380838EEF9FEFDF91CF9152
:103320001F910F91FF9008956C817D818E819F8107
:103330004B810E94E90D811108C082E090E0F80104
:103340009183808384EF9FEFE9CFF9800E94E40DA1
:103350004F2D50E0BE01685F7F4F0E94062D89818E
:103360000E94530E81E090E0F8019183808390E009
:1033700080E0D4CFDF92EF92FF920F931F93CF9311
:10338000DF938A01EC01C60FD71F0E94E40D7C0178
:10339000D98071D2DD2059F0029721E030E0D816B3
:1033A000190619F010F030E020E0232B79F482E0C8
:1033B00090E0F801918380838EEF9FEFDF91CF91B2
:1033C0001F910F91FF90EF90DF900895EF2841F447
:1033D00082E090E0F8019183808384EF9FEFEECF4D
:1033E000F9800E94E40D4F2D50E0BE016E5F7F4FCB
:1033F0000E94062D89810E94530E81E090E0F80121
:103400009183808390E080E0D9CF81E799E1909328
:103410009C0380939B03089580919B0390919C0350
:1034200008950895FC011182108293838283089588
:10343000DB011D921C92DC011296ED91FC91139719
:103440007183608313967C936E9312970895FC01A9
:1034500080819181DB018D939C93A081B181109734
:1034600041F08D919C9191838083892B11F4F3839A
:10347000E2830895FC0180819181DB018D939C930F
:10348000892B11F473836283718360830895FC0137
:1034900011821082938382830895CF93DF931F92CA
:1034A0001F92CDB7DEB71A821982F894BE016F5F02
:1034B0007F4F82EA93E0CBDF89819A81009709F000
:1034C00017D389819A81892B89F7BE016F5F7F4F5E
:1034D00086EA93E0BCDF89819A81009709F008D3DE
:1034E00089819A81892B89F778940F900F90DF91C9
:1034F000CF910895CF93DF931F921F92CDB7DEB780
:103500001A821982F894BE016F5F7F4F8EE993E0B3
:103510009EDF89819A81009709F0EAD289819A8198
:10352000892B89F778940F900F90DF91CF910895B0
:1035300081E0089590E080E00895EF92FF920F936C
:103540001F93CF93DF931F921F92CDB7DEB71A82DE
:10355000198280919D0307EF1FEF8823A1F1F89452
:10356000BE016F5F7F4F86EA93E071DF78948981B7
:103570009A81EE24E394F12C892B51F4F894BE0146
:103580006F5F7F4F82EA93E062DF7894F12CE12C49
:1035900089819A810EEF1FEF0097A9F0FC0142810B
:1035A000538164E070E074D68C01892B61F0F8944B
:1035B00069817A81C701880F991F880F991F8E55DD
:1035C0009C4F58DF7894C8010F900F90DF91CF91F6
:1035D0001F910F91FF90EF9008950F931F93CF933A
:1035E000DF9300D01F92CDB7DEB71C821B821A82F8
:1035F000198280919D0307EF1FEF8823C1F0AE0170
:103600004D5F5F4F64E070E0CE010196B4D68C014F
:10361000892B69F4E981FA818B819C819383828370
:10362000F89469817A818EE993E002DF7894C80189
:103630000F900F900F900F90DF91CF911F910F91EE
:103640000895B9D7049608958F929F92AF92BF9232
:10365000CF92DF92EF92FF920F931F93CF93DF935E
:103660001F921F92CDB7DEB71A821982BC016F5F1D
:103670007F4F6330710598F0AA24AA94BA2CC50133
:103680000F900F90DF91CF911F910F91FF90EF90CE
:10369000DF90CF90BF90AF909F908F90089541158D
:1036A000510551F3480159018A016C01CADF88159F
:1036B000990511F7E114F104F9F28E0D9F1DA8167A
:1036C000B906D0F280919D038823F1F0F894B501FA
:1036D000645071099701AE014F5F5F4FC8010496B6
:1036E000DFD65C01892B71F489819A81F80193837B
:1036F0008283C601880F991F880F991FB8018E55C4
:103700009C4F96DE7894BBCF87EFA82EBB24BA944B
:10371000B6CFAF92BF92CF92DF92EF92FF920F930C
:103720001F93CF93DF931F921F92CDB7DEB71A82FC
:103730001982892B09F047C06115710509F443C04E
:103740004115510509F43FC02115310509F43BC06D
:1037500001151105C1F180919D038823B9F179010B
:103760006A015B01F894BE016F5F7F4F8EE993E0C1
:103770006EDE789489819A81009759F1DC01129666
:103780006D917C91A8010496A4D68C01E981FA81FF
:10379000D501ED93FC93828193810496F601918388
:1037A00080834FDFD7018D939C93C8010F900F90BA
:1037B000DF91CF911F910F91FF90EF90DF90CF900D
:1037C000BF90AF9008950FEF1FEFEFCF07EF1FEF00
:1037D000ECCF0EEF1FEFE9CFCF93DF93EC01672B18
:1037E00071F4F2D68C179D0760F0E5D62496C80FC9
:1037F000D91FE4D68C0F9D1FDF91CF910895E1D69C
:10380000F1CF90E080E0F8CF0F931F93CF93DF9339
:1038100020919D0321112BC08B01EC0182EA93E0E2
:1038200001DE86EA93E0FEDD8EE993E0FBDD97D0D2
:103830000097C1F4C9D670E060E0CEDF47E252E005
:1038400062E070E081D1009769F480912702909145
:103850002802CCD6B801CE0101D5009719F421E099
:1038600020939D03DF91CF911F910F91089584EFD5
:103870009FEFF8CFA6C6A8C6CF93DF93A8D6EC01DA
:10388000892B11F40ADE36DECE01DF91CF91089547
:10389000CF93DF939CD6EC01892B09F4FEDDCE019A
:1038A000DF91CF9108958091270290912802089589
:1038B000CF93DF9380919D03D0E0C0E08823D1F0C7
:1038C0009AD6EC01892BB1F4E8DD14DE8091270251
:1038D00090912802E7D1E8D2EC01892B59F482EAD1
:1038E00093E0D5DD86EA93E0D2DD8EE993E0CFDD8B
:1038F00010929D03CE01DF91CF910895EF92FF9238
:103900000F931F93CF93DF93EC017A018B010F5F2D
:103910001F4F0E9DA0010F9D500D1E9D500D112497
:1039200070E060E00E940F2D90E080E0F0E0E0E0C9
:103930002FEFE816F90639F4DF91CF911F910F911F
:10394000FF90EF9008951A8219822883309711F022
:10395000D283C1830196FE01C00FD11FEACFCF925F
:10396000DF92EF92FF920F931F93CF93DF930BEBB6
:1039700014E00C7F43E050E069E272E08FE292E0F5
:103980001AD489E2E82E82E0F82E9FE2C92E92E056
:10399000D92ECAE2D5E0D7014D915D917D01F601A6
:1039A000619171916F01198308835D834C835B83FF
:1039B0004A837F836E839B012F5F3F4F249FC0010B
:1039C000259F900D349F900D1124998788870115AC
:1039D000110511F0C80192DF88859985080F191F1C
:1039E0002A96FFE2EF16F2E0FF06A9F6ECEAF3E012
:1039F0008CE091E0DF019C011D9221503040E1F705
:103A00001092AB031092AA03109249051092480538
:103A100010924D0510924C0510924B0510924A05DC
:103A200010924F0510924E051092510510925005BC
:103A30001092530510925205109257051092560598
:103A40001092550510925405109259051092580580
:103A500010925B0510925A051092270510922605C8
:103A6000109229051092280590E080E0DF91CF9117
:103A70001F910F91FF90EF90DF90CF9008950097E6
:103A8000F1F0F894AFE2B2E0EAE2F5E030E020E0F5
:103A90004D915D9148175907A8F042815381411516
:103AA000510581F08AE0829FF001839FF00D11247F
:103AB000E65DFA4F80819181009759F4789490E007
:103AC00080E008952F5F3F4F3A962330310501F78C
:103AD000F5CFDC0111966D917C917183608341502B
:103AE000510953834283FC012193CF0178940895B7
:103AF000009749F1DC018E91853041F4E091280571
:103B0000F09129053097F9F0CD0119948530D8F45A
:103B1000282F30E0F8948FEF8C938AE0829FF00199
:103B2000839FF00D1124E65DFA4F808191811296FA
:103B30009C938E931197B183A08382819381019688
:103B40009383828378940895CF92DF92EF92FF92CD
:103B50000F931F93CF93DF939C018FEA93E08C7FA9
:103B60004115510509F49BC02115310509F497C091
:103B70006115710509F493C07A01AB01B9016D5F5C
:103B80007F4F6C7F9B012F5F3F4F249F8001259FBC
:103B9000100D349F100D1124F89420914805309198
:103BA0004905232B59F420915005309151052115D9
:103BB000310569F12017310708F058C020915205EE
:103BC00030915305232B91F42091500530915105EC
:103BD000820F931F20915A0530915B052115310505
:103BE00009F441C02017310708F056C07894CFEF90
:103BF000DFEF86EF9FEFF701D183C083DF91CF9195
:103C00001F910F91FF90EF90DF90CF900895C3E048
:103C1000D0E0C090AA03D090AB0329E031E02C198A
:103C20003D092017310710F32AE02C9FF0012D9F4A
:103C3000F00D1124E65DFA4F918380835583448310
:103C4000538342837783668311870087009709F047
:103C500055DE0C0D1D1D1093AB030093AA03789441
:103C600090E080E0C8CFC4E0D0E0D3CFC3E0D0E0A4
:103C70002AE02C9FF0012D9FF00D1124E65DFA4FF4
:103C80009183808355834483538342837783668300
:103C9000009729F333DEE3CFC4E0D0E0E9CF8FEF24
:103CA0009FEFACCF9C010397029708F069C0F8948E
:103CB00084E09AE0482F50E0241735070CF44DC0FB
:103CC00091E08AE0829FF001839FF00D1124E65D70
:103CD000FA4F118210821582148213821282178287
:103CE00016829923B1F18091480590914905892B5D
:103CF000A9F420915005309151052115310571F03D
:103D00008091AA039091AB03821B930B9093AB031A
:103D10008093AA031092510510925005809152058C
:103D200090915305892BA9F420915A0530915B0598
:103D30002115310571F08091AA039091AB03821B8C
:103D4000930B9093AB038093AA0310925B051092A0
:103D50005A05789490E080E00895949FF001959F33
:103D6000F00D1124E65DFA4F40815181452B31F46D
:103D700040855185452B11F481509CCF90E0A1CF17
:103D80008FEF9FEF08954115510549F1009739F1E3
:103D90006115710521F1F8942091260530912705D0
:103DA000232BB9F42091280530912905232B89F480
:103DB0009093270580932605709329056093280525
:103DC000789425E030E090E080E0FA0131832083B0
:103DD000089578942FEF3FEF86EF9FEFF6CF8FEFA8
:103DE0009FEF0895059769F4F894109227051092B3
:103DF00026051092290510922805789490E080E01D
:103E000008958FEF9FEF08956115710519F4F0E0A3
:103E1000E0E011C08530910581F4E0912605F09134
:103E200027053097A1F3CB0101961995009779F3F7
:103E3000FC0185E08193CF0108959C012350310955
:103E40002230310520F72AE0289FD001299FB00DAC
:103E50001124A65DBA4F2D913C911197232BB9F2F5
:103E600016962D913C9117972617370780F2F894F4
:103E700012962D913C9113972115310529F0ED9162
:103E8000FC911197309711F47894C1CF4181528100
:103E900011965C934E932150310913963C932E93C7
:103EA000129781937894C7CFE8EBF4E08EE6DF01B8
:103EB0001D928A95E9F7ECEAF3E08CE091E0DF01EE
:103EC0009C011D9221503040E1F71092AB031092FB
:103ED000AA03EAE2F5E082E3DF011D928A95E9F7A1
:103EE000E6E2F5E084E0DF011D928A95E9F790E0D3
:103EF00080E00895CF93DF93C0913502D0913602D0
:103F0000CF3FDC0759F45CD490933602809335029E
:103F100097FF09C0D0933602C093350284EF9FEF1C
:103F2000DF91CF91089590E080E0FACF8230910543
:103F300028F480935C0590E080E008958FEF9FEF78
:103F400008954F925F926F927F92AF92BF92CF92FD
:103F5000DF92EF92FF920F931F93CF93DF931F9205
:103F60001F92CDB7DEB71A821982009709F478C084
:103F70006115710509F474C0209135023091360243
:103F800007EF1FEF2F3F3F4F09F444C06B015C0167
:103F9000412C512C3201F12CE12C10E000E09E016B
:103FA0002F5F3F4FA6014E195F09B5016E0D7F1DB2
:103FB000809135029091360262D4892B09F04AC073
:103FC00089819A81009741F4E114F10429F4209148
:103FD0005C05222309F441C0E80EF91EEC14FD042F
:103FE000C8F480E8481684E858068EE16806710433
:103FF00018F560E070E0CB0191D72AE0420E511C29
:10400000611C711C0A3F4FEF140721F0043F8FEF32
:104010001807A1F4C8010F900F90DF91CF911F9165
:104020000F91FF90EF90DF90CF90BF90AF907F9077
:104030006F905F904F90089501EF1FEF81E090E047
:10404000013F2FEF120711F090E080E0892B09F477
:10405000A6CFE0CF04EF1FEFDDCF0AEF1FEFDACFDF
:104060000FEF1FEFD7CF4F925F926F927F92AF9279
:10407000BF92CF92DF92EF92FF920F931F93CF9355
:10408000DF931F921F92CDB7DEB71A821982009775
:1040900009F478C06115710509F474C020913502E6
:1040A0003091360207EF1FEF2F3F3F4F09F444C016
:1040B0006B015C01412C512C3201F12CE12C10E000
:1040C00000E09E012F5F3F4FA6014E195F09B50129
:1040D0006E0D7F1D809135029091360286D3892B1B
:1040E00009F04AC089819A81009741F4E114F104F2
:1040F00029F420915C05222309F441C0E80EF91E41
:10410000EC14FD04C8F480E4481682E458068FE0FD
:104110006806710418F560E070E0CB01FFD62AE074
:10412000420E511C611C711C0E3F4FEF140721F011
:10413000043F8FEF1807A1F4C8010F900F90DF9193
:10414000CF911F910F91FF90EF90DF90CF90BF9094
:10415000AF907F906F905F904F90089502EF1FEFA8
:1041600081E090E0023F2FEF120711F090E080E035
:10417000892B09F4A6CFE0CF04EF1FEFDDCF0EEFC0
:104180001FEFDACF0FEF1FEFD7CF8091350290915D
:1041900036028F3F980749F00BD3892B49F48FEFF4
:1041A0009FEF909336028093350290E080E008956F
:1041B00084EF9FEF0895CF92DF92EF92FF920F93DB
:1041C0001F93CF93DF9321E04115510509F020E0C3
:1041D0004150510921112CC0DC01FB01D12CC12C13
:1041E00021E022C03FEFC31AD30A7D010D911D913A
:1041F000E701EA80FB80E016F106A8F42081318116
:10420000E280F380F182E08233832283ED90FC90A0
:1042100011979D0122503109E901F982E882119636
:104220001C930E9320E03296C416D506D8F2D2CF56
:10423000DF91CF911F910F91FF90EF90DF90CF9082
:104240000895FC01680F791F90E080E0E617F707FA
:1042500009F408952191820F911DF8CF20915D05F9
:10426000211113C047DE009791F41092630510925C
:104270006205109261051092600510925F05109220
:104280005E0521E020935D05089584EF9FEF08957A
:10429000AF92BF92CF92DF92EF92FF920F931F9354
:1042A000CF93DF93009709F460C04630510508F4BE
:1042B0005CC020915D05C7EFDFEF222309F449C000
:1042C0008C01060F171FF801C080D180C114D104E2
:1042D00009F44EC096012A5F3F4F4217530708F476
:1042E00047C07C018091620590916305938382832E
:1042F000B6016C5F7F4F5801A60EB71EC801A1DF43
:10430000F5019183808364E070E0C8011ADEEC015E
:10431000892BF9F481E090E009DEB601C80104962A
:1043200010DEEC01892B91F462E070E0C50109DE3A
:10433000EC01892B59F4C701DBDB80916205909178
:1043400063050196909363058093620590E080E099
:10435000EDDDCE01DF91CF911F910F91FF90EF9096
:10436000DF90CF90BF90AF900895CFEFDFEFF1CF08
:10437000C9EFDFEFEECF6F927F928F929F92AF9255
:10438000BF92CF92DF92EF92FF920F931F93CF9342
:10439000DF9300D01F92CDB7DEB7009709F47AC043
:1043A0004115510509F476C020915D0507EF1FEF17
:1043B000222309F44DC03A017B015C0164E070E006
:1043C000CE01019650DE8C01892B09F041C0098194
:1043D0001A810115110509F45AC0480186E0880EBA
:1043E000911CB701680D791D8091370290913802B8
:1043F0000BDD6C01009709F450C0A70170E060E08C
:104400000E940F2D89819A81AB81BC81EC0CFD1C2F
:10441000F70181939193A193B1937F0181E090E0A3
:1044200085DDB801C7011FDE892B31F562E070E040
:10443000C701800F911F17DE8C01892BE9F490E0F2
:1044400080E074DDF501D182C082F3019182808227
:10445000C8010F900F900F900F90DF91CF911F9197
:104460000F91FF90EF90DF90CF90BF90AF909F9013
:104470008F907F906F90089590E080E057DDF50178
:1044800011821082F30111821082C60131DB09EF23
:104490001FEFDECF0FEF1FEFDBCF06EF1FEFD8CF01
:1044A0000097A1F04115510589F02115310571F0F2
:1044B000F90136966E177F0748F0DC012D933C9387
:1044C000DA01ED93FC9390E080E008958FEF9FEF89
:1044D0000895AF92BF92CF92DF92EF92FF920F9327
:1044E0001F93CF93DF93009709F45FC041155105E7
:1044F00009F45BC06530710508F457C020915D0573
:10450000C7EFDFEF222391F1DC01CD90DC90119712
:104510001296ED91FC9196012A5F3F4FC9EFDFEFB4
:104520002617370719F5C0915E05D0915F052097D2
:1045300049F521E030E030935F0520935E057A0174
:104540008C01F0936105E09360055601B4E0AB0E79
:10455000B11CB50176DE0A0D1B1DF80120813181E9
:104560008217930729F5D701CD92DC92CE01DF9116
:10457000CF911F910F91FF90EF90DF90CF90BF9060
:10458000AF90089520916005309161052F5F3F4FF6
:10459000CCEFDFEFE217F30790F2CBEFDFEF2E1750
:1045A0003F0768F2D0E0C0E0CACFCFEFDFEFDECF49
:1045B000C3EFDFEFDBCF84E090E0089582E090E08E
:1045C00008958CEF9FEF089580E290E00895109297
:1045D00063051092620510926105109260051092B9
:1045E0005F0510925E0590E080E008959093380298
:1045F00080933702089580915D05882391F0C5DD91
:10460000009789F41092630510926205109261057B
:104610001092600510925F0510925E0510925D0584
:10462000089590E080E00895009749F061157105C4
:1046300031F0FC0111821082FB0111821082089579
:10464000F3CF26E030E040E855E260E070E090E033
:1046500080E000C0109265051092640589309105D4
:1046600008F03AC0FC018827E75CFC4D8F4F0C94A2
:10467000E52C42234B2354235D2366236D237023B3
:104680007323792381E090E090936505809364051E
:1046900083E795E097C682E090E09093650580936C
:1046A000640580E196E0F6CF84E090E090936505A4
:1046B000809364058DEA96E0EDCF88E090E09093DA
:1046C0006505809364058AE497E0E4CF80E190E09B
:1046D0009093650580936405089580E290E0F8CF9B
:1046E00080E490E0F5CF80E890E0909365058093BA
:1046F000640580916405909165059160E9CF1F92F2
:104700000F920FB60F9211240BB60F922F933F9377
:104710004F935F936F937F938F939F93AF93BF93C9
:10472000EF93FF938EEE95E89093250180932401FB
:10473000BAD0FF91EF91BF91AF919F918F917F91EF
:104740006F915F914F913F912F910F900BBE0F9002
:104750000FBE0F901F9018958EEE95E8909325014F
:1047600080932401A3E7B0E08C918E7F8C93E0E2EC
:10477000F1E080818C7F8083E1E2F1E08081877EBF
:10478000808380818460808380818C7F80838C9112
:1047900081608C930895E3E7F0E0808190819E7FB3
:1047A00090838170089581E00895109266050895C0
:1047B00068EE73E080E090E0B1D390E080E008958F
:1047C00026E030E040E050E16EE070E090E080E014
:1047D00041DF83E795E02CD5892B21F083E795E035
:1047E00041D5F7CF90E080E00895CF92DF92EF922D
:1047F000FF920F931F93CF93DF936B017A01E9012F
:104800001982188283E795E013D5892B69F1860117
:10481000CC24C39482E0D82E80916605811110C00B
:1048200083E795E01FD50297B9F7C0926605F801B6
:10483000D1928F0188819981019699838883ECCFE9
:10484000888199818E159F0578F483E795E00AD5D4
:104850008F3F9807A9F3F80181938F01888199818F
:10486000019699838883ECCF90E080E0DF91CF912F
:104870001F910F91FF90EF90DF90CF9008950F93CD
:104880001F93CF93DF93EA01890183E795E00E94AC
:10489000722CF801D183C08390E080E0DF91CF914A
:1048A0001F910F910895CF92DF92EF92FF92809126
:1048B000670591E0980F90936705882369F021E0E0
:1048C00030E0309369052093680580936705FF9079
:1048D000EF90DF90CF9008957894E0913B02F091B3
:1048E0003C02C28CD38CE48CF58C0E949603B701F9
:1048F000A60190E080E00E94BA02F89480916705DA
:104900008150E3CF0F931F93CF93DF93109206084C
:104910001092050839D395DEC0913B02D0913C023C
:104920001982188264E170E080E090E00E943C030C
:1049300070E060E090E080E00E94BD01009709F027
:104940003AC00E946104F89478948A819B81BC01EA
:10495000685F7F4F0E94C001892B59F46FEF7FEF92
:10496000CB010E9450020E943603882311F081E09F
:104970008EA3F894F1DE0E943903882311F080E0C1
:1049800008C00E9436038111FACF81E09EA19111E7
:10499000F6CF8093050878940E94310B8C017894AF
:1049A0008091050881110CC00E94E6040E941C033E
:1049B000F89490E080E0DF91CF911F910F910895DE
:1049C0000E941A030E9439038823D9F081E0809362
:1049D00006089091060881E0911180E08093050817
:1049E000809106088111D7DE0130110529F40E945B
:1049F000310B892B09F4D9DE0E94310B8C01D3DEF7
:104A0000CFCF0E9436038111E1CF81E09EA19111A9
:104A1000DECF80E0DCCF5058BB27AA270ED057C18D
:104A200048D130F04DD120F031F49F3F11F41EF405
:104A30003DC10EF4E095E7FB0AC1E92F59D180F39F
:104A4000BA17620773078407950718F071F49EF58B
:104A500088C10EF4E0950B2EBA2FA02D0B01B901E1
:104A600090010C01CA01A0011124FF27591B99F0E4
:104A7000593F50F4503E68F11A16F040A22F232FF0
:104A8000342F4427585FF3CF469537952795A79540
:104A9000F0405395C9F77EF41F16BA0B620B730BE7
:104AA000840BBAF09150A1F0FF0FBB1F661F771F58
:104AB000881FC2F70EC0BA0F621F731F841F48F40D
:104AC000879577956795B795F7959E3F08F0B3CF93
:104AD0009395880F08F09927EE0F9795879508957D
:104AE00029D180F09F3740F491110EF43BC160E072
:104AF00070E080E89FE3089526F01B16611D711D8C
:104B0000811DABC0C5C07FD008F481E00895F8D006
:104B100088F09F5790F0B92F9927B751A0F0D1F0A6
:104B2000660F771F881F991F1AF0BA95C9F712C030
:104B3000B13081F016D1B1E0089513C1672F782FFD
:104B40008827B85F39F0B93FCCF38695779567959C
:104B5000B395D9F73EF490958095709561957F4F08
:104B60008F4F9F4F0895E89409C097FB3EF49095AE
:104B70008095709561957F4F8F4F9F4F9923A9F036
:104B8000F92F96E9BB279395F695879577956795C5
:104B9000B795F111F8CFFAF4BB0F11F460FF1BC009
:104BA0006F5F7F4F8F4F9F4F16C0882311F096E99C
:104BB00011C0772321F09EE8872F762F05C066234A
:104BC00071F096E8862F70E060E02AF09A95660F03
:104BD000771F881FDAF7880F9695879597F90895BC
:104BE000A9D080F09F3740F491110EF0BBC060E077
:104BF00070E080E89FEB089526F41B16611D711D7F
:104C0000811D2BC045C0990F0008550FAA0BE0E885
:104C1000FEEF16161706E807F907C0F0121613067E
:104C2000E407F50798F0621B730B840B950B39F4BE
:104C30000A2661F0232B242B252B21F408950A2624
:104C400009F4A140A6958FEF811D811D089597F964
:104C50009F6780E870E060E00895882371F477230F
:104C600021F09850872B762F07C0662311F49927DF
:104C70000DC09051862B70E060E02AF09A95660F87
:104C8000771F881FDAF7880F9695879597F908950B
:104C90009F3F31F0915020F4879577956795B795B0
:104CA000880F911D9695879597F908959FEF80EC51
:104CB000089500240A941616170618060906089582
:104CC00000240A9412161306140605060895092EE8
:104CD0000394000C11F4882352F0BB0F40F4BF2B57
:104CE00011F460FF04C06F5F7F4F8F4F9F4F089597
:104CF00057FD9058440F551F59F05F3F71F047958D
:104D0000880F97FB991F61F09F3F79F08795089571
:104D1000121613061406551FF2CF4695F1DF08C090
:104D2000161617061806991FF1CF869571056105AD
:104D300008940895E5DFA0F0BEE7B91788F4BB2713
:104D40009F3860F41616B11D672F782F8827985F5B
:104D5000F7CF869577956795B11D93959639C8F3EA
:104D60000895E894BB2766277727CB0197F9089524
:104D70004ADF08F48FEF08950BD0A9CF9ADF28F00F
:104D80009FDF18F0952309F062CF90CF1124EACF6E
:104D9000AFDFA0F3959FD1F3950F50E0551F629FB1
:104DA000F001729FBB27F00DB11D639FAA27F00D84
:104DB000B11DAA1F649F6627B00DA11D661F829FAB
:104DC0002227B00DA11D621F739FB00DA11D621F90
:104DD000839FA00D611D221F749F3327A00D611DAD
:104DE000231F849F600D211D822F762F6A2F11248F
:104DF0009F5750408AF0E1F088234AF0EE0FFF1FE2
:104E0000BB1F661F771F881F91505040A9F79E3F18
:104E1000510570F01CCFA6CF5F3FECF3983EDCF35A
:104E2000869577956795B795F795E7959F5FC1F755
:104E3000FE2B880F911D9695879597F908951F92DF
:104E40000F920FB60F9211242F933F938F939F933E
:104E5000AF93BF9380916B0590916C05A0916D0508
:104E6000B0916E0530916A0523E0230F2D3758F578
:104E70000196A11DB11D20936A0580936B05909347
:104E80006C05A0936D05B0936E0580916F059091B0
:104E90007005A0917105B09172050196A11DB11D1B
:104EA00080936F0590937005A0937105B093720580
:104EB000BF91AF919F918F913F912F910F900FBE16
:104EC0000F901F90189526E8230F0296A11DB11D83
:104ED000D2CF3FB7F89480916F0590917005A09163
:104EE0007105B091720526B5A89B05C02F3F19F03A
:104EF0000196A11DB11D3FBFBA2FA92F982F88275A
:104F0000BC01CD01620F711D811D911D42E0660F34
:104F1000771F881F991F4A95D1F708958F929F9206
:104F2000AF92BF92CF92DF92EF92FF926B017C0122
:104F3000D0DF4B015C01C114D104E104F104D9F0CC
:104F4000FED4C7DF681979098A099B09683E734056
:104F50008105910580F321E0C21AD108E108F1082A
:104F600088EE880E83E0981EA11CB11CC114D104E8
:104F7000E104F10431F7FF90EF90DF90CF90BF9004
:104F8000AF909F908F900895789484B5826084BD8F
:104F900084B5816084BD85B5826085BD85B581603D
:104FA00085BDEEE6F0E0808181608083E1E8F0E09D
:104FB0001082808182608083808181608083E0E8CC
:104FC000F0E0808181608083E1EBF0E080818460AB
:104FD0008083E0EBF0E0808181608083E1E9F0E0B4
:104FE000808182608083808181608083E0E9F0E05D
:104FF000808181608083E1EAF0E08081826080834B
:10500000808181608083E0EAF0E08081816080833C
:10501000E1E2F1E080818260808380818160808331
:10502000E0E2F1E0808181608083EAE7F0E0808166
:1050300084608083808182608083808181608083BE
:105040008081806880831092C1000895863308F0C3
:10505000865320917B00982F9870277F922B9093F6
:105060007B002091390290E4299F900111248770E0
:10507000822B80937C0080917A00806480937A00F8
:1050800080917A0086FDFCCF809178009091790024
:1050900008958150823108F059C0E82FF0E0882748
:1050A000EC5AF74D8F4F91C47428782866286C28E5
:1050B0007028A6287B28812885288B288F2893286C
:1050C00099289D28A628A128A728AB288091800090
:1050D0008F77809380000895809180008F7DF9CF35
:1050E00080918000877FF5CF84B58F7784BD089548
:1050F00084B58F7DFBCF8091B0008F778093B00017
:1051000008958091B0008F7DF9CF809190008F77C6
:10511000809390000895809190008F7DF9CF8091C9
:105120009000877FF5CF8091A0008F778093A000BB
:1051300008958091A0008F7DF9CF8091A000877F96
:10514000F5CF809120018F77809320010895809181
:1051500020018F7DF9CF80912001877FF5CFCF93FC
:10516000DF9390E0FC01E65DFE4F249180599E4F55
:10517000FC0184918823C9F090E0880F991FFC01FD
:10518000E053FE4FA591B491FC01EA54FE4FC59146
:10519000D49161110DC09FB7F8948C912095822312
:1051A0008C938881282328839FBFDF91CF91089516
:1051B000623051F49FB7F8943C91822F80958323FD
:1051C0008C93E8812E2BEFCF8FB7F894EC912E2B98
:1051D0002C938FBFEACF1F93CF93DF93282F30E01C
:1051E000F901EC51FF4F8491F901E65DFE4FD49136
:1051F000F901E059FE4FC491CC23A1F0162F811183
:1052000048DFEC2FF0E0EE0FFF1FEA54FE4FA591B0
:10521000B4918FB7F894EC91111108C0D095DE23AA
:10522000DC938FBFDF91CF911F910895DE2BF8CFD4
:10523000FC01918D228D892F90E0805C9F4F821B15
:1052400091098F7399270895FC01918D828D98178C
:1052500031F0828DE80FF11D858D90E008958FEF7C
:105260009FEF0895FC01918D828D981761F0A28DBA
:10527000AE0FBF2FB11D5D968C91928D9F5F9F7376
:10528000928F90E008958FEF9FEF0895FC01538D6A
:10529000448D252F30E0842F90E0821B930B541710
:1052A00010F0CF96089501970895FC01A48DA80FE2
:1052B000B92FB11DA35ABF4F2C91848D90E0019658
:1052C0008F739927848FA689B7892C93A089B18978
:1052D0008C91837080648C93938D848D981306C019
:1052E0000288F389E02D80818F7D80830895CF939C
:1052F000DF93EC01888D8823B1F0AA89BB89E88906
:10530000F9898C9185FD03C0808186FD0CC00FB6A4
:1053100007FCF7CF8C9185FFF2CF808185FFEDCF21
:10532000CE01C3DFEACFDF91CF910895EF92FF92D4
:105330000F931F93CF93DF93EC0181E0888F9B8DB8
:105340008C8D98131AC0E889F989808185FF15C072
:105350009FB7F894EE89FF896083E889F989808195
:105360008370806480839FBF81E090E0DF91CF9164
:105370001F910F91FF90EF900895F62E0B8D10E086
:105380000F5F1F4F0F731127E02E8C8D8E110BC0F6
:105390000FB607FCFACFE889F989808185FFF5CF40
:1053A000CE0183DFF2CFEB8DEC0FFD2FF11DE35A21
:1053B000FF4FF0829FB7F8940B8FEA89FB898081B9
:1053C0008062D0CFCF92DF92EF92FF921F93CF9364
:1053D000DF93EC016A017B01122FE889F98982E0F1
:1053E0008083C11481EED806E104F10499F060E0F5
:1053F00079E08DE390E0A7019601C5D221503109F3
:10540000410951095695479537952795211580E112
:10541000380790F0E889F989108260E874E88EE135
:1054200090E0A7019601AFD22150310941095109FD
:105430005695479537952795EC85FD853083EE8504
:10544000FF852083188EEC89FD891083EA89FB890A
:10545000808180618083EA89FB8980818860808384
:10546000EA89FB89808180688083EA89FB89808161
:105470008F7D8083DF91CF911F91FF90EF90DF9020
:10548000CF9008951F920F920FB60F9211240BB672
:105490000F922F938F939F93EF93FF93E091830548
:1054A000F09184058081E0918905F0918A0582FD63
:1054B0001DC0908180918C058F5F8F7320918D0529
:1054C000821741F0E0918C05F0E0ED58FA4F958F8E
:1054D00080938C05FF91EF919F918F912F910F9069
:1054E0000BBE0F900FBE0F901F9018958081F2CFCA
:1054F0001F920F920FB60F9211240BB60F922F939B
:105500003F934F935F936F937F938F939F93AF934B
:10551000BF93EF93FF9383E795E0C7DEFF91EF9191
:10552000BF91AF919F918F917F916F915F914F91BB
:105530003F912F910F900BBE0F900FBE0F901F90B9
:105540001895E3E7F5E01382128288EE93E0A0E07D
:10555000B0E084839583A683B78385EC92E0918342
:10556000808385EC90E09587848784EC90E0978732
:10557000868780EC90E0918B808B81EC90E0938B20
:10558000828B82EC90E0958B848B86EC90E0978BFD
:10559000868B118E128E138E148E08951F920F9289
:1055A0000FB60F9211240BB60F922F938F939F93E8
:1055B000EF93FF93E0912006F09121068081E09126
:1055C0002606F091270682FD1DC090818091290654
:1055D0008F5F8F7320912A06821741F0E091290690
:1055E000F0E0E05FF94F958F80932906FF91EF91EE
:1055F0009F918F912F910F900BBE0F900FBE0F9028
:105600001F9018958081F2CF1F920F920FB60F92C4
:1056100011240BB60F922F933F934F935F936F9389
:105620007F938F939F93AF93BF93EF93FF9380E10B
:1056300096E03BDEFF91EF91BF91AF919F918F91EB
:105640007F916F915F914F913F912F910F900BBE82
:105650000F900FBE0F901F901895E0E1F6E01382B7
:10566000128288EE93E0A0E0B0E084839583A68365
:10567000B78385EC92E0918380838DEC90E09587F1
:1056800084878CEC90E09787868788EC90E0918BFC
:10569000808B89EC90E0938B828B8AEC90E0958BE9
:1056A000848B8EEC90E0978B868B118E128E138EEE
:1056B000148E08951F920F920FB60F9211240BB6FD
:1056C0000F922F938F939F93EF93FF93E091BD06DB
:1056D000F091BE068081E091C306F091C40682FD80
:1056E0001DC090818091C6068F5F8F732091C70681
:1056F000821741F0E091C606F0E0E355F94F958F2F
:105700008093C606FF91EF919F918F912F910F90FB
:105710000BBE0F900FBE0F901F9018958081F2CF97
:105720001F920F920FB60F9211240BB60F922F9368
:105730003F934F935F936F937F938F939F93AF9319
:10574000BF93EF93FF938DEA96E0AFDDFF91EF916A
:10575000BF91AF919F918F917F916F915F914F9189
:105760003F912F910F900BBE0F900FBE0F901F9087
:105770001895EDEAF6E01382128288EE93E0A0E03D
:10578000B0E084839583A683B78385EC92E0918310
:10579000808385ED90E09587848784ED90E09787FE
:1057A000868780ED90E0918B808B81ED90E0938BEC
:1057B000828B82ED90E0958B848B86ED90E0978BC9
:1057C000868B118E128E138E148E08951F920F9257
:1057D0000FB60F9211240BB60F922F938F939F93B6
:1057E000EF93FF93E0915A07F0915B078081E0917E
:1057F0006007F091610782FD1DC090818091630771
:105800008F5F8F7320916407821741F0E0916307E7
:10581000F0E0E65BF84F958F80936307FF91EF917F
:105820009F918F912F910F900BBE0F900FBE0F90F5
:105830001F9018958081F2CF1F920F920FB60F9292
:1058400011240BB60F922F933F934F935F936F9357
:105850007F938F939F93AF93BF93EF93FF938AE4CC
:1058600097E023DDFF91EF91BF91AF919F918F91D1
:105870007F916F915F914F913F912F910F900BBE50
:105880000F900FBE0F901F901895EAE4F7E0138277
:10589000128288EE93E0A0E0B0E084839583A68333
:1058A000B78385EC92E09183808385E391E09587CF
:1058B000848784E391E09787868780E391E0918BEA
:1058C000808B81E391E0938B828B82E391E0958BD7
:1058D000848B86E391E0978B868B118E128E138ECC
:1058E000148E0895AF92BF92CF92DF92EF92FF9203
:1058F0000F931F93CF93DF936C017B018B01040FF8
:10590000151FEB015E01AE18BF08C017D10759F093
:105910006991D601ED91FC910190F081E02DC601D5
:105920001995892B79F7C501DF91CF911F910F91BF
:10593000FF90EF90DF90CF90BF90AF9008950895C3
:10594000DB018F939F9349D0BF91AF91A29F800DB0
:10595000911DA39F900DB29F900D11240895AA1B35
:10596000BB1B51E107C0AA1FBB1FA617B70710F04A
:10597000A61BB70B881F991F5A95A9F7809590957C
:10598000BC01CD010895A1E21A2EAA1BBB1BFD018B
:105990000DC0AA1FBB1FEE1FFF1FA217B307E4070E
:1059A000F50720F0A21BB30BE40BF50B661F771F66
:1059B000881F991F1A9469F7609570958095909546
:1059C0009B01AC01BD01CF010895EE0FFF1F881FA1
:1059D0008BBF0790F691E02D199409D0A59F900DEB
:1059E000B49F900DA49F800D911D11240895A29F36
:1059F000B001B39FC001A39F700D811D1124911DA3
:105A0000B29F700D811D1124911D0895FB01DC01D1
:105A100002C001900D9241505040D8F70895DC012A
:105A200001C06D9341505040E0F70895F894FFCFC6
:105A30000000803F0000A0410000803F0000000007
:105A4000FEFFFFFF01E8030000FFFF00000000FF72
:105A5000FFFFFFFFFFFFFFFFFF010001000100202C
:105A60000038001000FFFFFFFF0101F302FF008676
:105A70000DB20DFE006C0DEA0AFD00FE0C580DFC87
:105A800000440DEA0AF600350EEA0AF5000B0D7423
:105A90000EF400FE0D8B0EDE00BA125315DD002948
:105AA00014EA0ADA005B106310D9006E157310E275
:105AB00000430FEA0AE1007E0FEA0AE000F30FEA72
:105AC0000AD6005119EA0AD5000812EA0AD400944D
:105AD00011EA0AD3000511EA0ADC008210EA0AC0C2
